:1000000034C04FCD4ECD2CC84DC91BCB08C9C1CA79
:1000100048CD47CD46CD45CD44CD43CD42CD41CD54
:1000200040CD3ACB3ECD3DCD3CCD3BCD58CB7ACB30
:10003000B1C937CD3E003E18803E183E30001ACC84
:100040003E303E44803E443E57001AE43E573E67F1
:10005000803E673E85001AF73E853EA3803EA33E64
:10006000AE001B153EAE3EF4800011241FBECFEF44
:10007000CDBFDFE3DEBFE4E3F0E040E017C0B591C1
:10008000A59135912591059107FD0CC0959185911C
:10009000EF01F92FE82F05900D92A217B307D9F7BA
:1000A000FE0104C01D92A217B307E1F7E936F40779
:0A00B00031F790DCDFCCF894FFCFAD
:1000BA00A0E0B0E0E2E6F0E010CC009709F48AC3D1
:1000CA00EC01A12CB12C812C912C212CD12C552462
:1000DA00539433E0C32E45E8642E56E8752E62E049
:1000EA00362E78E0472EEA81FB818081918188163D
:1000FA00990608F0ACC17501EE0CFF1CEC81FD817C
:10010A00EE0DFF1DA281B3819C919E7109F0508270
:10011A000C811D810E0D1F1DF8018081843009F4A8
:10012A009EC038F48230E1F008F047C0813059F0BF
:10013A0087C1853809F4BEC0863809F4FBC0873008
:10014A0009F07EC13EC1911187C0F80130828C81CD
:10015A009D81FC01EE0DFF1D4182DD24D39470C107
:10016A00F8012181222331F142815381253038F06F
:10017A00FA0181819281F8018483958315C0F8017F
:10018A0084819581FA01418152818417950761F032
:10019A004817590728F40197F8018483958304C006
:1001AA000196F801848395832150F8012183DD2487
:1001BA00D39446C1F801C08243C1F8012481358134
:1001CA0082819381FC01418152812417350709F408
:1001DA0037C18E819F8142175307F8F4EA81FB8168
:1001EA00241B350BDC01AA0DBB1D8C9190E0058008
:1001FA0002C0959587950A94E2F799272817390737
:10020A0008F41EC18481882309F41AC187E0F80121
:10021A008083EA81FB81248119C0FC01EA0DFB1D60
:10022A00421B530B808190E04817590708F408C114
:10023A008281882329F0B401CE01D8D5811100C169
:10024A0084E0F8018083EA81FB8122818C819D818F
:10025A00FC01EE0DFF1D2183DD24D394F1C0F801CA
:10026A002481358182819381FC0181819281821767
:10027A00930708F4DAC0EE81FF81EA0DFB1D821BA9
:10028A00930B208130E02817390708F0CEC082810D
:10029A00882329F0B401CE01A9D58111D1C0F80172
:1002AA008181882329F081508183DD24D394C8C0B9
:1002BA00F8016BC0288139818A819B81FC01808584
:1002CA00F9018383EC81FD818F010E0D1F1DF80159
:1002DA004481558182819381FC01818192818417B5
:1002EA009507C0F0AE81BF81AA0DBB1D6C91262F68
:1002FA0030E0FD0171817F5F02C0359527957A95BF
:10030A00E2F7841B950B621B262F30E0281739076A
:10031A0008F494C0F8017082EA81FB8122818C8101
:10032A009D81FC01EE0DFF1D218322242394DD24EF
:10033A00D39486C0F8016481758182819381FC011E
:10034A00218132812617370750F4F80181818823E9
:10035A0061F18150F80181832224239471C0EE81D6
:10036A00FF81EA0DFB1D8081482F50E091819F5F3C
:10037A0002C0559547959A95E2F7261B370B841BC1
:10038A0090E0F8018217930768F46082EA81FB81A2
:10039A0023818C819D81FC01EE0DFF1D2183222486
:1003AA0023944EC08181811104C0C08222242394E7
:1003BA0047C08150F801818322242394DD24D394F9
:1003CA003FC0F8012481358182819381FC018181BA
:1003DA0092818217930748F5281B390BEE81FF811A
:1003EA00EA0DFB1D808190E0EA81FB81058002C055
:1003FA00959587950A94E2F79927F80128173907FE
:10040A00A8F0818181110BC050828C819D81FC01F1
:10041A00EE0DFF1D0280F381E02DC08211C08150D4
:10042A00F8018183DD24D3940BC0F801C0828C814A
:10043A009D81FC01EE0DFF1D118202C0222423942E
:10044A00FFEF8F1A9F0A83E0A80EB11C4CCEE881F9
:10045A00F981808187FF23C040E050E020E030E04E
:10046A00EA81FB81808191812817390798F4EC8110
:10047A00FD81E40FF51FA281B3818C9180FD05C037
:10048A009081977F11F081608C932F5F3F4F4A5F75
:10049A005F4FE6CFE881F98180818F778083D11021
:1004AA0008C0E881F981211074C080818E7F808321
:1004BA0073C0EA81FB818185882399F3E881F981F8
:1004CA00808180688083EA81FB818185813049F758
:1004DA0040E050E020E030E096E0D92EEA81FB814E
:1004EA00A081B1812A173B07E0F60C811D81FA0130
:1004FA00EE0FFF1F4F01800E911EF4018081982F8D
:10050A00977FA9F1853811F08330C1F5EE80FF801D
:10051A00C701840F951FFC01B280BB2041F180E026
:10052A0090E0C12C8A179B0700F528173907D9F0E4
:10053A00D89EB001D99E700D1124600F711FFB0166
:10054A006081643011F0663871F4BC01660F771F60
:10055A00680F791F6E0D7F1DFB016281B61203C001
:10056A00CD01CC24C3940196DDCFC11007C0F4019C
:10057A00A281B3818C918E7F8C9306C0F401A281F3
:10058A00B3818C9181608C932F5F3F4F4D5F5F4F9A
:10059A00A5CF8081816080838091E43E9091E53E81
:1005AA00E881F98121813281A90148535F4F4817B7
:1005BA00590738F4821B930BAA24A394A3E0BA2EFA
:1005CA0042C08217930710F080E005C1821B930B8B
:1005DA000197893C9105C0F3EFCF885C9109E881C6
:1005EA00F9812181328128533F4F2183328323812C
:1005FA00211197C02481222311F021502483E881FC
:10060A00F9812581222311F021502583AA81BB81FA
:10061A00FD01268121111BC0AA81BB81FD01278111
:10062A0021114AC0EA81FB812381222361F020E063
:10063A0030E0A0E0B0E0EA81FB8140815181A4175B
:10064A00B50708F471C0893C910538F6BDCF088119
:10065A001981F80124812111DFCFED90FC901197C7
:10066A0060E070E040E050E04E155F0501F1EC817A
:10067A00FD814F01860E971EF4012081233011F06F
:10068A00283081F4F40124813581C280D380F601B7
:10069A00C180D2802C153D0528F42F5F3F4FF4010D
:1006AA00248335834F5F5F4F6A5F7F4FDDCFFD0144
:1006BA002681F8012483B0CF08811981F8012581A8
:1006CA002111B0CFED90FC90119760E070E040E00E
:1006DA0050E04E155F0501F1EC81FD814F01860E58
:1006EA00971EF4012081233011F0283081F4F4019F
:1006FA0024813581C280D380F601C180D280C2169E
:10070A00D30628F421503109F401248335834F5F3D
:10071A005F4F6A5F7F4FDDCFFD012781F801258397
:10072A0081CF215023837ECFA901440F551FEC812D
:10073A00FD81E40FF51F6081653809F047C06181CA
:10074A00662319F06150618341C0A0826C817D816A
:10075A00FB01E40FF51F0280F381E02DB082EE81E8
:10076A00FF81E20FF31FD280DD2081F140E050E0EB
:10077A0000E010E0EA81FB816081718106171707AA
:10078A0028F5EE81FF81E40FF51F6281D61219C0A8
:10079A00BA01660F771FEC81FD814F01860E971E05
:1007AA00F401E280F380F701F080F0FE0AC0F40160
:1007BA00A082EC81FD81E60FF71F0280F381E02D14
:1007CA00B0820F5F1F4F4D5F5F4FD4CF11962D5FE1
:0E07DA003F4F31CF8BE0CDB7DEB7E2E197C8DD
:1007E800A4E0B0E0E9EFF3E07AC88091F33E882313
:1007F80009F45AC14091DC3E5091DD3E4B835C8345
:10080800C090E23ED090E33E00E010E060E070E08F
:10081800E12CF12C80E03324339421E8422E882403
:100828008A9499249394EB81FC81A081B1812D91C4
:100838003C911197E216F30608F032C1F6012191B6
:1008480031916F01EB81FC81A480B580A501460F31
:10085800571F49835A83FA0140814C7150E05695DD
:100868004795569547954115510521F04130510559
:10087800D1F00DC1EB81FC8142815381400F511FA2
:10088800FA01A481AF709581A91710F49A1B01C0D1
:1008980090E002C0369527959A95E2F7E981FA81AA
:1008A80021833283F5C0EB81FC8142815381400F63
:1008B800511FFA01058002C0369527950A94E2F780
:1008C800E981FA8121833283A380B4802115F2E083
:1008D8003F0720F02F5F314091E005C0A401421B83
:1008E800530B9A0190E0FD015280F0E45F1205C0BD
:1008F80036952795992319F00BC0992349F04FEFA6
:10090800A416B40641F4E981FA8140828EE007C05A
:100918007724739401C0712C2A303105A0F4EB813F
:10092800FC8124813581F901E60FF71F908197FF3B
:100938003082EB81FC8124813581F901E60FF71FB4
:10094800A382B482A5C0D501AB2FBB27A295AF70F7
:100958009A2FA50144275F70652EA501407F552772
:10096800F4E056954795FA95E1F7FA2DFF70AF2E0A
:10097800A43030F09370B695A795B695A7959A0FC1
:1009880071103CC050E8550D523010F456E007C0C5
:1009980053E005C0951768F49F5F2F5C3109203D2F
:1009A8003105C0F706C0EFE06E1649F06394255193
:1009B800310926313105B8F7FFE06F120EC09517DF
:1009C80020F49F5FF5E06F2E08C0EFE06E2E05C0A3
:1009D8004F3049F04F5F2250310923303105C0F7BD
:1009E8004F3009F068C04FE0641689F1639445E020
:1009F80062C0992361F091502F5C3109203D310587
:100A0800C0F705C0662041F06A94255131092631A6
:100A18003105C0F761100DC0992321F091505AE0BB
:100A2800652E07C0612C05C0442341F04150225077
:100A3800310923303105C0F7411111C0662009F48E
:100A48003FC06A944AE023303105C0F608C0591304
:100A580031C02330310550F14FE0A42E4FE09430DF
:100A680018F0990F990F9950E0E14E9FA0011124B9
:100A780056294A29A92FB0E0BA2FAA27B295B07FE4
:100A88004A2B5B2BE981FA814383548301C0FFCF52
:100A9800FFEFEF1AFF0A6B5F7F4F0A5F1F4FC3CE4E
:100AA80092E09093F33E0EC083E00CC04FE02FE03D
:100AB800A22ED5CF4FE02330310508F070CFCFCF2D
:0A0AC80040E0CDCF2496E1E123C702
:100AD200CF93DF93C0E0D4E082E08C83A0E2B4E065
:100AE20014961C921497E0E4F4E014828AE088835E
:100AF20080EE8C9380E18083188A198A1A8A1B8A75
:100B020084E08C8B8D8B8E8B8F8B50968C93509731
:100B120051961C92519752961C92529753961C9240
:100B2200539754961C92549755961C9255975696E5
:100B32001C92569757961C92108A118A128A138A0F
:100B4200148A158A168A178AE0E0F2E0108281E0A0
:100B520081831282138282E59DE08093C43E90934A
:100B6200C53E83E59DE08093C23E9093C33E84E5FB
:100B72009DE08093C03E9093C13E85E59DE08093C9
:100B8200BE3E9093BF3E86E59DE08093BC3E90932F
:100B9200BD3E87E59DE08093BA3E9093BB3E88E5DB
:100BA2009DE08093B83E9093B93E89E59DE08093A5
:100BB200B63E9093B73E8AE59DE08093B43E909313
:100BC200B53E8BE59DE08093B23E9093B33E8CE5BB
:100BD2009DE08093B03E9093B13E8DE59DE0809381
:0C0BE200AE3E9093AF3EDF91CF9108959E
:100BEE00CF93DF93BC01E091DC3EF091DD3E86E0D9
:100BFE00869F9001879F300D1124C281D381C20F31
:100C0E00D31F898180932A06A281B381A20FB31FBD
:100C1E008C918093260695E0969FA001979F500D8C
:100C2E001124C481D581C40FD51F8B8180931A06E0
:100C3E00C481D581C40FD51F8C8180931B06A481DE
:100C4E00B581A40FB51F8C9181FD9C9384819581F4
:100C5E00DC01A40FB51F8C918C7171F4C281D3810C
:100C6E00C20FD31FAC81A295AF70B0E0A456B546AB
:100C7E008C9180931C0603C08FE380931C06C28167
:100C8E00D381C20FD31F8A818B3120F48C5F809366
:100C9E00050603C08FE180930506C281D381C20F82
:100CAE00D31F8D8180930106C281D381C20FD31FC2
:100CBE008B8182958F708093190682819381FC01BE
:100CCE00E20FF31F83818F70806180930206809103
:100CDE00180683608093180681E88093000681E0F1
:0A0CEE0080930806DF91CF9108956E
:100CF800EF92FF920F931F93CF93DF9300D0CDB75E
:100D0800DEB78091E63E8F7079F404E41EE30F2E7F
:100D1800F7E5EF2EFEE3FF2EF02DF80181918F010C
:100D28008ED6E016F106C9F785E589D68091E63EAC
:100D380086D619821A8289819A81049708F042C05E
:100D480089819A811CD6192F7AD6812F78D68981E4
:100D58009A8122D6192F73D6812F71D689819A81CB
:100D68000ED68C0189819A8117D6081B190B802F02
:100D780066D6812F64D689819A811BD6192F5FD6B2
:100D8800812F5DD689819A81EBD588231CF481E077
:100D980056D602C080E053D689819A81FC01EE0FB5
:100DA800FF1F8E0F9F1FFC01E959F14C808147D628
:100DB80089819A81019689839A8389819A81049786
:100DC80008F4BECF8091E83E3AD68091E63E91E0A5
:100DD800980F9093E63E33D68AEA31D60F900F905B
:0E0DE800DF91CF911F910F91FF90EF90089532
:100DF600CF92DF92FF920F931F93CF93DF93EC0175
:100E0600AE81BF81FB01EE0FFF1FE60FF71F8F01BB
:100E16000A0F1B1FF801F2804C815D81C6E0C69F58
:100E26009001C79F300D1124EA01C20FD31F2A81FA
:100E36003B81F901218132810C80DD81C02D2C1B83
:100E46003D0BE801E8812E1B3109EC01EA81FB81AB
:100E5600008111816D01FA0140E050E04017510711
:100E660049F146175707F9F0E6018A81F8121BC0C7
:100E760080818558823000F1A481B5818281938179
:100E8600EC0189819A81A817B90768F48A1B9B0B24
:100E9600E601A881B0E0A817B90728F48A1B9B0BC6
:100EA6002817390748F04F5F5F4FD3E0CD0ED11CAE
:100EB6003696D4CF80E001C081E0DF91CF911F91BB
:0A0EC6000F91FF90DF90CF90089588
:100ED00061157105B1F10097A1F12091F33E222334
:100EE00091F1243091F18093DC3E9093DD3E60934C
:100EF000DE3E7093DF3E20EC20931806DC01ED917E
:100F0000FC912281203441F4209118062062209324
:100F1000180610921E061DC0203841F420911806B4
:100F200028622093180610921E0613C0213879F407
:100F30002091180628622093180626E820931E06A2
:100F400008C08BE0089583E0089581E0089582E071
:100F5000089510920006DC01ED91FC9184818031AE
:100F600008F080E18093030681E080930B06809374
:100F70000A061092E03E1092E13E75D281110AC03D
:100F800084E08093F33E8091E03E9091E13E2FDE3D
:0C0F900080E0089582E08093F33E089515
:100F9C00E091EE3EF0E0EE0FFF1FE95AF14C1082AB
:100FAC0011828091010882FF11C0E091EE3EF0E0C9
:100FBC00EE0FFF1FE95AF14C808182608083E09133
:100FCC00D83EF091D93E309709F0099580910108EF
:100FDC0081FF0CC0EAEDFEE3808181608083E091AB
:100FEC00D43EF091D53E309709F0099580910108D7
:100FFC0086FF11C0E091EE3EF0E0EE0FFF1FE95AC4
:10100C00F14C808184608083E091D63EF091D73E94
:10101C00309709F00995209100088091EE3E8F5F82
:10102C0087709091ED3E891769F0E091EE3EF0E00B
:10103C00E357F14C20838093EE3E8091EC3E8F5F22
:10104C008093EC3EE091CC3EF091CD3E309709F090
:04105C000995089555
:101060001F920F920FB60F9211242F933F934F931D
:101070005F936F937F938F939F93AF93BF93EF9300
:10108000FF931A9B05C0E091C43EF091C53E0995BF
:10109000199B05C0E091C23EF091C33E09951C9B8F
:1010A00005C0E091C03EF091C13E09951D9B05C071
:1010B000E091BE3EF091BF3E09951E9B05C0E091B8
:1010C000BC3EF091BD3E09951F9B05C0E091BA3E24
:1010D000F091BB3E09951B9B05C0E091B63EF09197
:1010E000B73E09958FEF83B9FF91EF91BF91AF9113
:1010F0009F918F917F916F915F914F913F912F9130
:0A1100000F900FBE0F901F9018957E
:10110A008EEC97E08093CE3E9093CF3E86EF9BE0A5
:10111A008093D23E9093D33EE0E0F8E08BE591E0F5
:10112A008087918780ED858380EC868383E087833F
:10113A0013861486168615868FE59DE08093D83E21
:10114A009093D93E80E69DE08093D63E9093D73E19
:10115A0081E69DE08093D43E9093D53E1092DA3E8C
:10116A001092DB3E1092F23E1092F13E88E080939C
:10117A00F03E81E08093EF3E1092EE3E1092ED3EFB
:0C118A001092EC3E8581806885830895FA
:10119600CF93DF93FC01892BC9F1C081D18188816E
:1011A600998186179707A0F19A810480F581E02D31
:1011B600903471F485E0869FE001879FD00D11245D
:1011C600CE0FDF1F84E392E08B839C8380E012C006
:1011D6009058923070F485E0869FE001879FD00D8D
:1011E6001124CE0FDF1F87E695E08B839C8380E07A
:1011F60001C082E095E0969F9001979F300D1124E3
:10120600E20FF31F90819260908303C08BE001C0D0
:0812160082E0DF91CF91089501
:10121E001F920F920FB60F9211242F933F934F935D
:10122E005F936F937F938F939F93AF93BF93EF9340
:10123E00FF938091420180FF0BC08091430180FF9C
:10124E0007C0E091CA3EF091CB3E309709F0099568
:10125E008091420181FF0BC08091430181FF07C045
:10126E00E091C83EF091C93E309709F0099583E0B0
:10127E0080934301FF91EF91BF91AF919F918F9119
:10128E007F916F915F914F913F912F910F900FBE74
:06129E000F901F9018954F
:1012A4001F920F920FB60F9211242F933F934F93D7
:1012B4005F936F937F938F939F93AF93BF93EF93BA
:1012C400FF93389B05C0E091B83EF091B93E099573
:1012D4003D9B05C0E091B43EF091B53E09953E9B1F
:1012E40005C0E091B23EF091B33E09953F9B05C025
:1012F400E091B03EF091B13E09958FEF87B9FF912F
:10130400EF91BF91AF919F918F917F916F915F9179
:101314004F913F912F910F900FBE0F901F901895F2
:10132400CF93DF93EC01892B69F1E881F981608126
:10133400718140E050E020E030E090E0261737076C
:1013440069F0EA81FB81E40FF51FA08181818A2B7A
:10135400982B2F5F3F4F4A5F5F4FF0CF9923A1F047
:101364008091F33E811107C09093220681E080931F
:10137400F33E80E00AC080912206982B90932206C7
:1013840080E003C08BE001C082E0DF91CF9108953B
:101394001F920F920FB60F9211242F933F934F93E6
:1013A4005F936F937F938F939F93AF93BF93EF93C9
:1013B400FF938091040886FB882780F98093EF3E91
:1013C400E091D03EF091D13E309709F00995E0E0EC
:1013D400F8E0848180648483FF91EF91BF91AF91A1
:1013E4009F918F917F916F915F914F913F912F9139
:0A13F4000F900FBE0F901F90189588
:1013FE008091EB3E813049F46AE47DE083EA9EE31E
:10140E0060DD811102C01092EB3E8091EA3E813088
:10141E0011F51092EA3EE1D981110AC08DE79EE3E3
:10142E0045D6882349F082E08093E83E5EDC04C016
:10143E0081E08093E83E59DCE0917D3EF0917E3E66
:10144E008081882324F481E08093EB3E03C081E009
:08145E008093E93E4ADC089589
:10146600CF93DF938091E03E9091E13EC091DC3EC8
:10147600D091DD3EE881F9814081518125E0289FA8
:10148600B001299F700D112420E030E084179507E4
:1014960098F4EC81FD81E20FF31FE60FF71FE08160
:1014A6002B5F3F4FE0FD02C00196F0CF8093E03EF8
:1014B6009093E13E80E005C01092E03E1092E13E3E
:0814C60081E0DF91CF91089550
:1014CE000F931F93CF93DF9380E290E095D283EA40
:1014DE009CE0D0D283EA9EE31EDF85E89EE3A2D293
:1014EE00C0E0D0E0BE0183EA9EE338D1BE0183EABC
:1014FE009EE34ADE2196C430D105A1F700E31EE338
:10150E00C0E0A8016C2F8DE79EE3A8D1CF5F0B5FE3
:10151E001F4FC430B1F7CBD2DF91CF911F910F91F6
:02152E0008951E
:1015300080E090E019D2882324F480E4809325048D
:1015400003C080E48093260481E090E00DD28823DC
:1015500024F480E88093250403C080E88093260467
:1015600082E090E001D2882324F488E0809305048F
:1015700003C088E08093060483E090E0F5D18823DF
:1015800024F480E180934504089580E1809346042B
:021590000895BC
:101592001F920F920FB60F9211242F933F934F93E6
:1015A2005F936F937F938F939F93AF93BF93EF93C9
:1015B200FF93E091C63EF091C73E309709F009953E
:1015C20081E080935301FF91EF91BF91AF919F9181
:1015D2008F917F916F915F914F913F912F910F90DA
:0815E2000FBE0F901F90189539
:1015EA001092000640911006509111068091E03E3B
:1015FA009091E13E9C01220F331FE091E23EF0916F
:10160A00E33EE20FF31F4083518301968093E03E4D
:10161A009093E13E23DF811109C084E08093F33E79
:10162A008091E03E9091E13EDDDA0895E091DE3E60
:08163A00F091DF3E09950895CF
:101642001F920F920FB60F9211242F933F934F9335
:101652005F936F937F938F939F93AF93BF93EF9318
:10166200FF935C9B05C0E091AE3EF091AF3E0995C1
:101672008FEF8BB9FF91EF91BF91AF919F918F91B6
:101682007F916F915F914F913F912F910F900FBE7C
:061692000F901F90189557
:101698001F920F920FB60F9211242F933F934F93DF
:1016A8005F936F937F938F939F93AF93BF93EF93C2
:1016B800FF9397DFFF91EF91BF91AF919F918F912A
:1016C8007F916F915F914F913F912F910F900FBE36
:0616D8000F901F90189511
:1016DE001F920F920FB60F9211242F933F934F9399
:1016EE005F936F937F938F939F93AF93BF93EF937C
:1016FE00FF934DDCFF91EF91BF91AF919F918F9131
:10170E007F916F915F914F913F912F910F900FBEEF
:06171E000F901F901895CA
:101724001F920F920FB60F9211242F933F934F9352
:101734005F936F937F938F939F93AF93BF93EF9335
:10174400FF9352D0FF91EF91BF91AF919F918F91F1
:101754007F916F915F914F913F912F910F900FBEA9
:061764000F901F90189584
:10176A00CF93DF930097B9F0DC01ED91FC912081D2
:10177A0031812617370788F045E0469F9001479F39
:10178A00300D1124EC01EC81FD81E20FF31F81E0A1
:10179A00808380E003C08BE001C082E0DF91CF91BB
:0217AA000895A0
:1017AC009091F03E9923B1F0E091F23EF0E0EB56CF
:1017BC00F14C80838091F23E8F5F87708093F23E74
:1017CC00E0E0F8E085818F7D85838091F03E81504B
:1017DC008093F03EE0E0F8E0858180628583089597
:1017EC001092EF3E8091F03E8830A0F4E091F13EF3
:1017FC00F0E0EB56F14C8081809302088091F13E31
:10180C008F5F87708093F13E8091F03E8F5F809365
:10181C00F03E0895E0E0F8E085818F7D85830895A2
:10182C0040E068ED80E690E02BD141E168ED81E687
:10183C0090E026D140E068ED82E690E021D140E0D6
:10184C0068ED80E790E01CD140E068ED88E790E01F
:0E185C0017D140E068ED8CE790E012D10895BE
:10186A00CF93DF930097B9F041155105A1F026E017
:10187A00629FB0011124EC01EC81FD81E60FF71F94
:10188A0021E020838C819D81FC01E60FF71F4283B2
:0E189A00538380E001C08BE0DF91CF91089571
:1018A800E0E4F1E081818111FDCFE0E4F1E08FEF28
:1018B8009FE784879587108611868FEF9FEF828731
:1018C8009387178281E082831582808381898111C1
:0C18D800FDCFE0E4F1E0128A158A0895CB
:1018E4002F923F924F925F926F927F928F929F922C
:1018F400AF92BF92CF92DF92EF92FF920F931F931A
:10190400CF93DF93CDB7DEB7CA1BDB0BCDBFDEBFF2
:02191400099434
:101916002A88398848885F846E847D848C849B8479
:10192600AA84B984C884DF80EE80FD800C811B8187
:10193600AA81B981CE0FD11DCDBFDEBFED010895BD
:101946008091E73E8F5F843118F48093E73E0895D7
:101956001092E73E81E08093EB3E84E190E05BD01D
:021966000895E2
:101968009C01220F331F820F931F880F991FE0914C
:0E197800813EF091823EE80FF91F80810895B4
:101986009C01220F331F220F331F820F931FFC016E
:0A199600E05DF14C8181928108951B
:1019A0009C01220F331F820F931FFC01EE0FFF1FBC
:0A19B000E050F24C84819581089507
:1019BA009C01220F331F220F331F820F931FFC013A
:0A19CA00E05DF14C838194810895E3
:1019D40041D080E28093250410DD8091E93E81307E
:0A19E400D9F71092E93EA2DDF7CF1B
:1019EE0040E068ED80E191E04AD0E0E1F1E0128262
:0819FE001382789480E0089543
:101A06009C01E0E4F1E0918192FDFDCF20934A0133
:061A160030934B0108951E
:101A1C002091E43E3091E53E820F931F8093E43E8B
:061A2C009093E53E0895D1
:101A3200009731F08093E23E9093E33E80E0089578
:041A42008BE0089598
:101A4600CF93C82F0DD08823E9F38C2FACDECF912E
:021A56000895F1
:0E1A5800E9DE3BD825DF55DB36DDC5DF08951E
:0E1A66009091F03E81E0911101C080E0089562
:0E1A7400EC0127D025D0CE0125D0CE0124D004
:0A1A82008093CA3E9093CB3E089576
:081A8C00FC0164BF40830895D2
:081A940081E08093EA3E089511
:061A9C003F1C0B050301D5
:021AA200AEC2D2
:021AA4000895A3
:021AA6000895A1
:021AA80008959F
:021AAA0008959D
:021AAC0008959B
:021AAE00089599
:021AB000089597
:021AB200089595
:021AB400089593
:021AB600089591
:021AB80008958F
:021ABA0008958D
:021ABC0008958B
:021ABE00089589
:021AC000089587
:021AC200089585
:021AC400089583
:021AC600089581
:021AC80008957F
:021ACA00F5D253
:101ACC002708000300042B04000300042D0200036C
:081ADC0000042E0100030004C8
:101AE4005FB400864A03EB00000000000000AA5522
:031AF400016EA0E0
:0C1AF7001401011401011401011401018B
:0A1B0300040002000501140514019E
:081B0D009D3E733E003E673E61
:061B1500A93E183E303E1F
:051B1B00040081300010
:02000004008278
:090000000000020000C40700002A
:00000001FF
